{
  "contractName": "KYC",
  "abi": [
    {
      "inputs": [],
      "stateMutability": "nonpayable",
      "type": "constructor"
    },
    {
      "anonymous": false,
      "inputs": [
        {
          "indexed": true,
          "internalType": "address",
          "name": "previousOwner",
          "type": "address"
        },
        {
          "indexed": true,
          "internalType": "address",
          "name": "newOwner",
          "type": "address"
        }
      ],
      "name": "OwnershipTransferred",
      "type": "event"
    },
    {
      "inputs": [],
      "name": "owner",
      "outputs": [
        {
          "internalType": "address",
          "name": "",
          "type": "address"
        }
      ],
      "stateMutability": "view",
      "type": "function",
      "constant": true
    },
    {
      "inputs": [],
      "name": "renounceOwnership",
      "outputs": [],
      "stateMutability": "nonpayable",
      "type": "function"
    },
    {
      "inputs": [
        {
          "internalType": "address",
          "name": "newOwner",
          "type": "address"
        }
      ],
      "name": "transferOwnership",
      "outputs": [],
      "stateMutability": "nonpayable",
      "type": "function"
    },
    {
      "inputs": [
        {
          "internalType": "string",
          "name": "_userName",
          "type": "string"
        },
        {
          "internalType": "string",
          "name": "_data",
          "type": "string"
        }
      ],
      "name": "addRequest",
      "outputs": [],
      "stateMutability": "nonpayable",
      "type": "function"
    },
    {
      "inputs": [
        {
          "internalType": "string",
          "name": "_userName",
          "type": "string"
        }
      ],
      "name": "removeRequest",
      "outputs": [],
      "stateMutability": "nonpayable",
      "type": "function"
    },
    {
      "inputs": [
        {
          "internalType": "address",
          "name": "_bankAddress",
          "type": "address"
        }
      ],
      "name": "viewBankDetails",
      "outputs": [
        {
          "internalType": "string",
          "name": "",
          "type": "string"
        },
        {
          "internalType": "address",
          "name": "",
          "type": "address"
        },
        {
          "internalType": "string",
          "name": "",
          "type": "string"
        },
        {
          "internalType": "uint256",
          "name": "",
          "type": "uint256"
        },
        {
          "internalType": "uint256",
          "name": "",
          "type": "uint256"
        },
        {
          "internalType": "bool",
          "name": "",
          "type": "bool"
        }
      ],
      "stateMutability": "view",
      "type": "function",
      "constant": true
    },
    {
      "inputs": [
        {
          "internalType": "string",
          "name": "_bankName",
          "type": "string"
        },
        {
          "internalType": "address",
          "name": "_bankAddress",
          "type": "address"
        },
        {
          "internalType": "string",
          "name": "_bankRegn",
          "type": "string"
        }
      ],
      "name": "addBank",
      "outputs": [],
      "stateMutability": "nonpayable",
      "type": "function"
    },
    {
      "inputs": [
        {
          "internalType": "address",
          "name": "_bankAddress",
          "type": "address"
        },
        {
          "internalType": "bool",
          "name": "_currentVotingStatus",
          "type": "bool"
        }
      ],
      "name": "modifyBank",
      "outputs": [],
      "stateMutability": "nonpayable",
      "type": "function"
    },
    {
      "inputs": [
        {
          "internalType": "address",
          "name": "_bankAddress",
          "type": "address"
        }
      ],
      "name": "removeBank",
      "outputs": [],
      "stateMutability": "nonpayable",
      "type": "function"
    },
    {
      "inputs": [
        {
          "internalType": "address",
          "name": "_bankAddress",
          "type": "address"
        }
      ],
      "name": "getBankComplaints",
      "outputs": [
        {
          "internalType": "uint256",
          "name": "",
          "type": "uint256"
        }
      ],
      "stateMutability": "view",
      "type": "function",
      "constant": true
    },
    {
      "inputs": [
        {
          "internalType": "address",
          "name": "_bankAddress",
          "type": "address"
        }
      ],
      "name": "reportBank",
      "outputs": [],
      "stateMutability": "nonpayable",
      "type": "function"
    },
    {
      "inputs": [
        {
          "internalType": "string",
          "name": "_userName",
          "type": "string"
        },
        {
          "internalType": "string",
          "name": "_customerData",
          "type": "string"
        }
      ],
      "name": "addCustomer",
      "outputs": [],
      "stateMutability": "nonpayable",
      "type": "function"
    },
    {
      "inputs": [
        {
          "internalType": "string",
          "name": "_userName",
          "type": "string"
        }
      ],
      "name": "viewCustomer",
      "outputs": [
        {
          "internalType": "string",
          "name": "",
          "type": "string"
        },
        {
          "internalType": "string",
          "name": "",
          "type": "string"
        },
        {
          "internalType": "address",
          "name": "",
          "type": "address"
        },
        {
          "internalType": "bool",
          "name": "",
          "type": "bool"
        },
        {
          "internalType": "uint256",
          "name": "",
          "type": "uint256"
        },
        {
          "internalType": "uint256",
          "name": "",
          "type": "uint256"
        }
      ],
      "stateMutability": "view",
      "type": "function",
      "constant": true
    },
    {
      "inputs": [
        {
          "internalType": "string",
          "name": "_userName",
          "type": "string"
        },
        {
          "internalType": "string",
          "name": "_newcustomerData",
          "type": "string"
        }
      ],
      "name": "modifyCustomer",
      "outputs": [],
      "stateMutability": "nonpayable",
      "type": "function"
    },
    {
      "inputs": [
        {
          "internalType": "string",
          "name": "_userName",
          "type": "string"
        },
        {
          "internalType": "address",
          "name": "_bankAddress",
          "type": "address"
        }
      ],
      "name": "upVoteCustomer",
      "outputs": [],
      "stateMutability": "nonpayable",
      "type": "function"
    },
    {
      "inputs": [
        {
          "internalType": "string",
          "name": "_userName",
          "type": "string"
        },
        {
          "internalType": "address",
          "name": "_bankAddress",
          "type": "address"
        }
      ],
      "name": "downVoteCustomer",
      "outputs": [],
      "stateMutability": "nonpayable",
      "type": "function"
    }
  ],
  "bytecode": "0x60806040523480156200001157600080fd5b5062000032620000266200008960201b60201c565b6200009160201b60201c565b6000600481905550600060058190555033600660006101000a81548173ffffffffffffffffffffffffffffffffffffffff021916908373ffffffffffffffffffffffffffffffffffffffff16021790555062000155565b600033905090565b60008060009054906101000a900473ffffffffffffffffffffffffffffffffffffffff169050816000806101000a81548173ffffffffffffffffffffffffffffffffffffffff021916908373ffffffffffffffffffffffffffffffffffffffff1602179055508173ffffffffffffffffffffffffffffffffffffffff168173ffffffffffffffffffffffffffffffffffffffff167f8be0079c531659141344cd1fd0a4f28419497f9722a3daafe3b4186f6b6457e060405160405180910390a35050565b61276080620001656000396000f3fe608060405234801561001057600080fd5b50600436106101005760003560e01c80638da5cb5b11610097578063ccfa8e7111610066578063ccfa8e711461028b578063f2fde38b146102a7578063f72860ca146102c3578063ff985986146102df57610100565b80638da5cb5b146102195780639649650c14610237578063a5a4980014610253578063b9da4af81461026f57610100565b80635ec2a7f2116100d35780635ec2a7f21461018e5780636cba00e6146101be578063715018a6146101da57806388cc8d8d146101e457610100565b80630a40976f14610105578063107925bb146101215780632ad45fe7146101565780633190abc014610172575b600080fd5b61011f600480360381019061011a9190611bd6565b6102fb565b005b61013b60048036038101906101369190611c32565b6103d8565b60405161014d96959493929190611d46565b60405180910390f35b610170600480360381019061016b9190611de1565b6106b5565b005b61018c60048036038101906101879190611e21565b61078f565b005b6101a860048036038101906101a39190611e99565b610a3a565b6040516101b59190611ec6565b60405180910390f35b6101d860048036038101906101d39190611c32565b610a86565b005b6101e2610af1565b005b6101fe60048036038101906101f99190611e99565b610b79565b60405161021096959493929190611ee1565b60405180910390f35b610221610e6e565b60405161022e9190611f50565b60405180910390f35b610251600480360381019061024c9190611e99565b610e97565b005b61026d60048036038101906102689190611e99565b610fc3565b005b61028960048036038101906102849190611e21565b6110a0565b005b6102a560048036038101906102a09190611f6b565b611228565b005b6102c160048036038101906102bc9190611e99565b6114cf565b005b6102dd60048036038101906102d89190611e21565b6115c6565b005b6102f960048036038101906102f49190611bd6565b611741565b005b8060011515600360008373ffffffffffffffffffffffffffffffffffffffff1673ffffffffffffffffffffffffffffffffffffffff16815260200190815260200160002060050160009054906101000a900460ff16151514610392576040517f08c379a000000000000000000000000000000000000000000000000000000000815260040161038990612042565b60405180910390fd5b600180846040516103a3919061209e565b908152602001604051809103902060040160008282546103c391906120e4565b925050819055506103d38361181e565b505050565b606080600080600080600073ffffffffffffffffffffffffffffffffffffffff16600188604051610409919061209e565b908152602001604051809103902060020160009054906101000a900473ffffffffffffffffffffffffffffffffffffffff1673ffffffffffffffffffffffffffffffffffffffff1603610491576040517f08c379a0000000000000000000000000000000000000000000000000000000008152600401610488906121ac565b60405180910390fd5b6001876040516104a1919061209e565b90815260200160405180910390206000016001886040516104c2919061209e565b90815260200160405180910390206001016001896040516104e3919061209e565b908152602001604051809103902060020160009054906101000a900473ffffffffffffffffffffffffffffffffffffffff1660018a604051610525919061209e565b908152602001604051809103902060020160149054906101000a900460ff1660018b604051610554919061209e565b90815260200160405180910390206003015460018c604051610576919061209e565b908152602001604051809103902060040154858054610594906121fb565b80601f01602080910402602001604051908101604052809291908181526020018280546105c0906121fb565b801561060d5780601f106105e25761010080835404028352916020019161060d565b820191906000526020600020905b8154815290600101906020018083116105f057829003601f168201915b50505050509550848054610620906121fb565b80601f016020809104026020016040519081016040528092919081815260200182805461064c906121fb565b80156106995780601f1061066e57610100808354040283529160200191610699565b820191906000526020600020905b81548152906001019060200180831161067c57829003601f168201915b5050505050945095509550955095509550955091939550919395565b6106bd6118f5565b73ffffffffffffffffffffffffffffffffffffffff166106db610e6e565b73ffffffffffffffffffffffffffffffffffffffff1614610731576040517f08c379a000000000000000000000000000000000000000000000000000000000815260040161072890612278565b60405180910390fd5b80600360008473ffffffffffffffffffffffffffffffffffffffff1673ffffffffffffffffffffffffffffffffffffffff16815260200190815260200160002060050160006101000a81548160ff0219169083151502179055505050565b3360011515600360008373ffffffffffffffffffffffffffffffffffffffff1673ffffffffffffffffffffffffffffffffffffffff16815260200190815260200160002060050160009054906101000a900460ff16151514610826576040517f08c379a000000000000000000000000000000000000000000000000000000000815260040161081d90612042565b60405180910390fd5b600073ffffffffffffffffffffffffffffffffffffffff1660018460405161084e919061209e565b908152602001604051809103902060020160009054906101000a900473ffffffffffffffffffffffffffffffffffffffff1673ffffffffffffffffffffffffffffffffffffffff16146108d6576040517f08c379a00000000000000000000000000000000000000000000000000000000081526004016108cd90612330565b60405180910390fd5b826001846040516108e7919061209e565b9081526020016040518091039020600001908161090491906124fc565b5081600184604051610916919061209e565b9081526020016040518091039020600101908161093391906124fc565b5033600184604051610945919061209e565b908152602001604051809103902060020160006101000a81548173ffffffffffffffffffffffffffffffffffffffff021916908373ffffffffffffffffffffffffffffffffffffffff160217905550600180846040516109a5919061209e565b908152602001604051809103902060020160146101000a81548160ff02191690831515021790555060006001846040516109df919061209e565b9081526020016040518091039020600401819055506000600184604051610a06919061209e565b908152602001604051809103902060030181905550600160046000828254610a2e91906120e4565b92505081905550505050565b6000600360008373ffffffffffffffffffffffffffffffffffffffff1673ffffffffffffffffffffffffffffffffffffffff168152602001908152602001600020600301549050919050565b600281604051610a96919061209e565b908152602001604051809103902060008082016000610ab591906119c1565b600182016000610ac591906119c1565b6002820160006101000a81549073ffffffffffffffffffffffffffffffffffffffff0219169055505050565b610af96118f5565b73ffffffffffffffffffffffffffffffffffffffff16610b17610e6e565b73ffffffffffffffffffffffffffffffffffffffff1614610b6d576040517f08c379a0000000000000000000000000000000000000000000000000000000008152600401610b6490612278565b60405180910390fd5b610b7760006118fd565b565b6060600060606000806000600360008873ffffffffffffffffffffffffffffffffffffffff1673ffffffffffffffffffffffffffffffffffffffff168152602001908152602001600020600001600360008973ffffffffffffffffffffffffffffffffffffffff1673ffffffffffffffffffffffffffffffffffffffff16815260200190815260200160002060010160009054906101000a900473ffffffffffffffffffffffffffffffffffffffff16600360008a73ffffffffffffffffffffffffffffffffffffffff1673ffffffffffffffffffffffffffffffffffffffff168152602001908152602001600020600201600360008b73ffffffffffffffffffffffffffffffffffffffff1673ffffffffffffffffffffffffffffffffffffffff16815260200190815260200160002060030154600360008c73ffffffffffffffffffffffffffffffffffffffff1673ffffffffffffffffffffffffffffffffffffffff16815260200190815260200160002060040154600360008d73ffffffffffffffffffffffffffffffffffffffff1673ffffffffffffffffffffffffffffffffffffffff16815260200190815260200160002060050160009054906101000a900460ff16858054610d4d906121fb565b80601f0160208091040260200160405190810160405280929190818152602001828054610d79906121fb565b8015610dc65780601f10610d9b57610100808354040283529160200191610dc6565b820191906000526020600020905b815481529060010190602001808311610da957829003601f168201915b50505050509550838054610dd9906121fb565b80601f0160208091040260200160405190810160405280929190818152602001828054610e05906121fb565b8015610e525780601f10610e2757610100808354040283529160200191610e52565b820191906000526020600020905b815481529060010190602001808311610e3557829003601f168201915b5050505050935095509550955095509550955091939550919395565b60008060009054906101000a900473ffffffffffffffffffffffffffffffffffffffff16905090565b610e9f6118f5565b73ffffffffffffffffffffffffffffffffffffffff16610ebd610e6e565b73ffffffffffffffffffffffffffffffffffffffff1614610f13576040517f08c379a0000000000000000000000000000000000000000000000000000000008152600401610f0a90612278565b60405180910390fd5b600360008273ffffffffffffffffffffffffffffffffffffffff1673ffffffffffffffffffffffffffffffffffffffff16815260200190815260200160002060008082016000610f6391906119c1565b6001820160006101000a81549073ffffffffffffffffffffffffffffffffffffffff0219169055600282016000610f9a91906119c1565b600382016000905560048201600090556005820160006101000a81549060ff0219169055505050565b6001600360008373ffffffffffffffffffffffffffffffffffffffff1673ffffffffffffffffffffffffffffffffffffffff168152602001908152602001600020600301600082825461101691906120e4565b925050819055506000600360055461102e91906125fd565b90508061103a83610a3a565b111561109c576000600360008473ffffffffffffffffffffffffffffffffffffffff1673ffffffffffffffffffffffffffffffffffffffff16815260200190815260200160002060050160006101000a81548160ff0219169083151502179055505b5050565b8160006001826040516110b3919061209e565b908152602001604051809103902060000180546110cf906121fb565b80601f01602080910402602001604051908101604052809291908181526020018280546110fb906121fb565b80156111485780601f1061111d57610100808354040283529160200191611148565b820191906000526020600020905b81548152906001019060200180831161112b57829003601f168201915b5050505050905060405160200161115e90612654565b6040516020818303038152906040528051906020012081604051602001611185919061209e565b60405160208183030381529060405280519060200120036111b45760016111af576111ae612669565b5b6111c4565b60006111c3576111c2612669565b5b5b836002856040516111d5919061209e565b908152602001604051809103902060000190816111f291906124fc565b5082600285604051611204919061209e565b9081526020016040518091039020600101908161122191906124fc565b5050505050565b6112306118f5565b73ffffffffffffffffffffffffffffffffffffffff1661124e610e6e565b73ffffffffffffffffffffffffffffffffffffffff16146112a4576040517f08c379a000000000000000000000000000000000000000000000000000000000815260040161129b90612278565b60405180910390fd5b82600360008473ffffffffffffffffffffffffffffffffffffffff1673ffffffffffffffffffffffffffffffffffffffff16815260200190815260200160002060000190816112f391906124fc565b5081600360008473ffffffffffffffffffffffffffffffffffffffff1673ffffffffffffffffffffffffffffffffffffffff16815260200190815260200160002060010160006101000a81548173ffffffffffffffffffffffffffffffffffffffff021916908373ffffffffffffffffffffffffffffffffffffffff16021790555080600360008473ffffffffffffffffffffffffffffffffffffffff1673ffffffffffffffffffffffffffffffffffffffff16815260200190815260200160002060020190816113c491906124fc565b506001600360008473ffffffffffffffffffffffffffffffffffffffff1673ffffffffffffffffffffffffffffffffffffffff16815260200190815260200160002060050160006101000a81548160ff0219169083151502179055506000600360008473ffffffffffffffffffffffffffffffffffffffff1673ffffffffffffffffffffffffffffffffffffffff168152602001908152602001600020600401819055506000600360008473ffffffffffffffffffffffffffffffffffffffff1673ffffffffffffffffffffffffffffffffffffffff168152602001908152602001600020600301819055506001600560008282546114c391906120e4565b92505081905550505050565b6114d76118f5565b73ffffffffffffffffffffffffffffffffffffffff166114f5610e6e565b73ffffffffffffffffffffffffffffffffffffffff161461154b576040517f08c379a000000000000000000000000000000000000000000000000000000000815260040161154290612278565b60405180910390fd5b600073ffffffffffffffffffffffffffffffffffffffff168173ffffffffffffffffffffffffffffffffffffffff16036115ba576040517f08c379a00000000000000000000000000000000000000000000000000000000081526004016115b19061270a565b60405180910390fd5b6115c3816118fd565b50565b3360011515600360008373ffffffffffffffffffffffffffffffffffffffff1673ffffffffffffffffffffffffffffffffffffffff16815260200190815260200160002060050160009054906101000a900460ff1615151461165d576040517f08c379a000000000000000000000000000000000000000000000000000000000815260040161165490612042565b60405180910390fd5b600073ffffffffffffffffffffffffffffffffffffffff16600184604051611685919061209e565b908152602001604051809103902060020160009054906101000a900473ffffffffffffffffffffffffffffffffffffffff1673ffffffffffffffffffffffffffffffffffffffff160361170d576040517f08c379a0000000000000000000000000000000000000000000000000000000008152600401611704906121ac565b60405180910390fd5b8160018460405161171e919061209e565b9081526020016040518091039020600101908161173b91906124fc565b50505050565b8060011515600360008373ffffffffffffffffffffffffffffffffffffffff1673ffffffffffffffffffffffffffffffffffffffff16815260200190815260200160002060050160009054906101000a900460ff161515146117d8576040517f08c379a00000000000000000000000000000000000000000000000000000000081526004016117cf90612042565b60405180910390fd5b600180846040516117e9919061209e565b9081526020016040518091039020600301600082825461180991906120e4565b925050819055506118198361181e565b505050565b6000600182604051611830919061209e565b908152602001604051809103902060030154600183604051611852919061209e565b90815260200160405180910390206004015461186e91906120e4565b9050600581106118f1576000600360055461188991906125fd565b90508060018460405161189c919061209e565b90815260200160405180910390206003015411156118ef5760006001846040516118c6919061209e565b908152602001604051809103902060020160146101000a81548160ff0219169083151502179055505b505b5050565b600033905090565b60008060009054906101000a900473ffffffffffffffffffffffffffffffffffffffff169050816000806101000a81548173ffffffffffffffffffffffffffffffffffffffff021916908373ffffffffffffffffffffffffffffffffffffffff1602179055508173ffffffffffffffffffffffffffffffffffffffff168173ffffffffffffffffffffffffffffffffffffffff167f8be0079c531659141344cd1fd0a4f28419497f9722a3daafe3b4186f6b6457e060405160405180910390a35050565b5080546119cd906121fb565b6000825580601f106119df57506119fe565b601f0160209004906000526020600020908101906119fd9190611a01565b5b50565b5b80821115611a1a576000816000905550600101611a02565b5090565b6000604051905090565b600080fd5b600080fd5b600080fd5b600080fd5b6000601f19601f8301169050919050565b7f4e487b7100000000000000000000000000000000000000000000000000000000600052604160045260246000fd5b611a8582611a3c565b810181811067ffffffffffffffff82111715611aa457611aa3611a4d565b5b80604052505050565b6000611ab7611a1e565b9050611ac38282611a7c565b919050565b600067ffffffffffffffff821115611ae357611ae2611a4d565b5b611aec82611a3c565b9050602081019050919050565b82818337600083830152505050565b6000611b1b611b1684611ac8565b611aad565b905082815260208101848484011115611b3757611b36611a37565b5b611b42848285611af9565b509392505050565b600082601f830112611b5f57611b5e611a32565b5b8135611b6f848260208601611b08565b91505092915050565b600073ffffffffffffffffffffffffffffffffffffffff82169050919050565b6000611ba382611b78565b9050919050565b611bb381611b98565b8114611bbe57600080fd5b50565b600081359050611bd081611baa565b92915050565b60008060408385031215611bed57611bec611a28565b5b600083013567ffffffffffffffff811115611c0b57611c0a611a2d565b5b611c1785828601611b4a565b9250506020611c2885828601611bc1565b9150509250929050565b600060208284031215611c4857611c47611a28565b5b600082013567ffffffffffffffff811115611c6657611c65611a2d565b5b611c7284828501611b4a565b91505092915050565b600081519050919050565b600082825260208201905092915050565b60005b83811015611cb5578082015181840152602081019050611c9a565b83811115611cc4576000848401525b50505050565b6000611cd582611c7b565b611cdf8185611c86565b9350611cef818560208601611c97565b611cf881611a3c565b840191505092915050565b611d0c81611b98565b82525050565b60008115159050919050565b611d2781611d12565b82525050565b6000819050919050565b611d4081611d2d565b82525050565b600060c0820190508181036000830152611d608189611cca565b90508181036020830152611d748188611cca565b9050611d836040830187611d03565b611d906060830186611d1e565b611d9d6080830185611d37565b611daa60a0830184611d37565b979650505050505050565b611dbe81611d12565b8114611dc957600080fd5b50565b600081359050611ddb81611db5565b92915050565b60008060408385031215611df857611df7611a28565b5b6000611e0685828601611bc1565b9250506020611e1785828601611dcc565b9150509250929050565b60008060408385031215611e3857611e37611a28565b5b600083013567ffffffffffffffff811115611e5657611e55611a2d565b5b611e6285828601611b4a565b925050602083013567ffffffffffffffff811115611e8357611e82611a2d565b5b611e8f85828601611b4a565b9150509250929050565b600060208284031215611eaf57611eae611a28565b5b6000611ebd84828501611bc1565b91505092915050565b6000602082019050611edb6000830184611d37565b92915050565b600060c0820190508181036000830152611efb8189611cca565b9050611f0a6020830188611d03565b8181036040830152611f1c8187611cca565b9050611f2b6060830186611d37565b611f386080830185611d37565b611f4560a0830184611d1e565b979650505050505050565b6000602082019050611f656000830184611d03565b92915050565b600080600060608486031215611f8457611f83611a28565b5b600084013567ffffffffffffffff811115611fa257611fa1611a2d565b5b611fae86828701611b4a565b9350506020611fbf86828701611bc1565b925050604084013567ffffffffffffffff811115611fe057611fdf611a2d565b5b611fec86828701611b4a565b9150509250925092565b7f42616e6b206973206e6f7420616c6c6f77656420746f20766f74650000000000600082015250565b600061202c601b83611c86565b915061203782611ff6565b602082019050919050565b6000602082019050818103600083015261205b8161201f565b9050919050565b600081905092915050565b600061207882611c7b565b6120828185612062565b9350612092818560208601611c97565b80840191505092915050565b60006120aa828461206d565b915081905092915050565b7f4e487b7100000000000000000000000000000000000000000000000000000000600052601160045260246000fd5b60006120ef82611d2d565b91506120fa83611d2d565b9250827fffffffffffffffffffffffffffffffffffffffffffffffffffffffffffffffff0382111561212f5761212e6120b5565b5b828201905092915050565b7f437573746f6d6572206973206e6f742070726573656e7420696e20746865206460008201527f6174616261736500000000000000000000000000000000000000000000000000602082015250565b6000612196602783611c86565b91506121a18261213a565b604082019050919050565b600060208201905081810360008301526121c581612189565b9050919050565b7f4e487b7100000000000000000000000000000000000000000000000000000000600052602260045260246000fd5b6000600282049050600182168061221357607f821691505b602082108103612226576122256121cc565b5b50919050565b7f4f776e61626c653a2063616c6c6572206973206e6f7420746865206f776e6572600082015250565b6000612262602083611c86565b915061226d8261222c565b602082019050919050565b6000602082019050818103600083015261229181612255565b9050919050565b7f437573746f6d657220697320616c72656164792070726573656e742c20706c6560008201527f6173652063616c6c206d6f64696679437573746f6d657220746f20656469742060208201527f74686520637573746f6d65722064617461000000000000000000000000000000604082015250565b600061231a605183611c86565b915061232582612298565b606082019050919050565b600060208201905081810360008301526123498161230d565b9050919050565b60008190508160005260206000209050919050565b60006020601f8301049050919050565b600082821b905092915050565b6000600883026123b27fffffffffffffffffffffffffffffffffffffffffffffffffffffffffffffffff82612375565b6123bc8683612375565b95508019841693508086168417925050509392505050565b6000819050919050565b60006123f96123f46123ef84611d2d565b6123d4565b611d2d565b9050919050565b6000819050919050565b612413836123de565b61242761241f82612400565b848454612382565b825550505050565b600090565b61243c61242f565b61244781848461240a565b505050565b5b8181101561246b57612460600082612434565b60018101905061244d565b5050565b601f8211156124b05761248181612350565b61248a84612365565b81016020851015612499578190505b6124ad6124a585612365565b83018261244c565b50505b505050565b600082821c905092915050565b60006124d3600019846008026124b5565b1980831691505092915050565b60006124ec83836124c2565b9150826002028217905092915050565b61250582611c7b565b67ffffffffffffffff81111561251e5761251d611a4d565b5b61252882546121fb565b61253382828561246f565b600060209050601f8311600181146125665760008415612554578287015190505b61255e85826124e0565b8655506125c6565b601f19841661257486612350565b60005b8281101561259c57848901518255600182019150602085019450602081019050612577565b868310156125b957848901516125b5601f8916826124c2565b8355505b6001600288020188555050505b505050505050565b7f4e487b7100000000000000000000000000000000000000000000000000000000600052601260045260246000fd5b600061260882611d2d565b915061261383611d2d565b925082612623576126226125ce565b5b828204905092915050565b50565b600061263e600083612062565b91506126498261262e565b600082019050919050565b600061265f82612631565b9150819050919050565b7f4e487b7100000000000000000000000000000000000000000000000000000000600052600160045260246000fd5b7f4f776e61626c653a206e6577206f776e657220697320746865207a65726f206160008201527f6464726573730000000000000000000000000000000000000000000000000000602082015250565b60006126f4602683611c86565b91506126ff82612698565b604082019050919050565b60006020820190508181036000830152612723816126e7565b905091905056fea264697066735822122026061c811b2df7ef769bf7f3829afa3f6b400730b772f453b85385ee19a60d2a64736f6c634300080f0033",
  "immutableReferences": {},
  "source": "    //SPDX-License-Identifier: MIT\r\n    pragma solidity ^0.8.9;\r\n\r\n    import 'openzeppelin-solidity/contracts/access/Ownable.sol';\r\n\r\n    contract KYC is Ownable {\r\n    struct Bank {\r\n        string name;\r\n        address ethAddress;\r\n        string regNumber;\r\n        uint complaintsRep;\r\n        uint kycCount;\r\n        bool isAllowedtoVote;\r\n    }\r\n\r\n     struct kycRequest{\r\n        string userName;\r\n        string data;\r\n        address bank;\r\n     }\r\n\r\n     struct Customer {\r\n        string userName;\r\n        string data;\r\n        address bank;\r\n        bool kycStatus;\r\n        uint downVotes;\r\n        uint upVotes;\r\n    }\r\n\r\n\r\n        mapping(string => Customer) customers;\r\n        mapping(string => kycRequest) kycRequests;\r\n        mapping(address => Bank) banks;\r\n\r\n        uint numCustomers;\r\n        uint numBanks;\r\n        address admin;\r\n\r\n    constructor() {\r\n        numCustomers = 0;\r\n        numBanks = 0;\r\n        admin = msg.sender;\r\n    }\r\n\r\n    //Modifier to check if the customer is already present\r\n    modifier isaCustomer(string memory _userName){\r\n        string memory temp = customers[_userName].userName;\r\n        if(keccak256(abi.encodePacked(temp)) == keccak256(abi.encodePacked(\"\")))\r\n        {            assert(true);        }\r\n        else\r\n        {            assert(false);        }\r\n        _;\r\n    }\r\n\r\n    //Modifier to check if the Bank is Allowed to vote for customers\r\n    modifier isAllowedtoVoteMod(address _bankAddress)\r\n    {\r\n        require(banks[_bankAddress].isAllowedtoVote == true, \"Bank is not allowed to vote\");\r\n        _;\r\n    }\r\n\r\n    //Adding the request for new customer to the system\r\n    function addRequest(string memory _userName,string memory _data) public isaCustomer(_userName)\r\n    {\r\n        kycRequests[_userName].userName = _userName;\r\n        kycRequests[_userName].data = _data;\r\n    }\r\n\r\n    //Removes the Request for the customer from the system\r\n    function removeRequest(string memory _userName) public\r\n    {\r\n        delete kycRequests[_userName];\r\n    }\r\n\r\n    //view the details of an existing bank in the system\r\n    function viewBankDetails(address _bankAddress) public view returns (string memory, address, string memory,uint,uint,bool)\r\n    {\r\n        return (banks[_bankAddress].name, banks[_bankAddress].ethAddress, banks[_bankAddress].regNumber,\r\n                banks[_bankAddress].complaintsRep,banks[_bankAddress].kycCount,banks[_bankAddress].isAllowedtoVote);\r\n\r\n    }\r\n\r\n    //adding the details of a new Bank to the system by the admin\r\n    function addBank(string memory _bankName, address _bankAddress, string memory _bankRegn) public onlyOwner\r\n    {\r\n        banks[_bankAddress].name = _bankName;\r\n        banks[_bankAddress].ethAddress = _bankAddress;\r\n        banks[_bankAddress].regNumber = _bankRegn;\r\n        banks[_bankAddress].isAllowedtoVote = true;\r\n        banks[_bankAddress].kycCount = 0;\r\n        banks[_bankAddress].complaintsRep = 0;\r\n        numBanks += 1;\r\n    }\r\n\r\n    //modify the voting status of an existing Bank if done by Admin\r\n    function modifyBank(address _bankAddress, bool _currentVotingStatus) public onlyOwner {\r\n        banks[_bankAddress].isAllowedtoVote = _currentVotingStatus;\r\n    }\r\n\r\n    //Remove an existing bank from the list of banks if done by Admin\r\n    function removeBank(address _bankAddress) public onlyOwner {\r\n        delete banks[_bankAddress];\r\n    }\r\n\r\n    //Get the number of complaints reported on a bank\r\n    function getBankComplaints(address _bankAddress) public view returns (uint){\r\n        return (banks[_bankAddress].complaintsRep);\r\n    }\r\n\r\n    //changes bank's isAllowedtoVote to false if the number of complaints is greater than one-third of the total banks\r\n    function reportBank(address _bankAddress) public {\r\n        banks[_bankAddress].complaintsRep +=1;\r\n        uint minBanks = (numBanks/3);\r\n        if(getBankComplaints(_bankAddress) > minBanks)\r\n        {\r\n            banks[_bankAddress].isAllowedtoVote = false;\r\n        }\r\n    }\r\n\r\n    //Valid Requests are added as Customers by the Bank\r\n    function addCustomer(string memory _userName, string memory _customerData) isAllowedtoVoteMod(msg.sender) public {\r\n        require(customers[_userName].bank == address(0), \"Customer is already present, please call modifyCustomer to edit the customer data\");\r\n        customers[_userName].userName = _userName;\r\n        customers[_userName].data = _customerData;\r\n        customers[_userName].bank = msg.sender;\r\n        customers[_userName].kycStatus = true;\r\n        customers[_userName].upVotes = 0;\r\n        customers[_userName].downVotes = 0;\r\n        numCustomers +=1;\r\n    }\r\n\r\n    //View existing customers\r\n    function viewCustomer(string memory _userName) public view returns (string memory, string memory, address,bool,uint,uint) {\r\n        require(customers[_userName].bank != address(0), \"Customer is not present in the database\");\r\n        return (customers[_userName].userName,  customers[_userName].data,     customers[_userName].bank\r\n                 ,customers[_userName].kycStatus, customers[_userName].downVotes, customers[_userName].upVotes);\r\n    }\r\n\r\n    //update customer details\r\n    function modifyCustomer(string memory _userName, string memory _newcustomerData) isAllowedtoVoteMod(msg.sender) public {\r\n        require(customers[_userName].bank != address(0), \"Customer is not present in the database\");\r\n        customers[_userName].data = _newcustomerData;\r\n    }\r\n\r\n    //Upvote the credibility of a customer by upvoting and check the KYC status of the customer\r\n    function upVoteCustomer(string memory _userName,address _bankAddress) isAllowedtoVoteMod(_bankAddress) public {\r\n        customers[_userName].upVotes += 1;\r\n        checkCustomerStatus(_userName);\r\n    }\r\n\r\n    //Downvote the credibility of a customer by upvoting and check the KYC status of the customer\r\n    function downVoteCustomer(string memory _userName,address _bankAddress) isAllowedtoVoteMod(_bankAddress) public {\r\n        customers[_userName].downVotes += 1;\r\n        checkCustomerStatus(_userName);\r\n    }\r\n\r\n\r\n    // checks the current KYC status of the Customer\r\n    function checkCustomerStatus(string memory _userName) private {\r\n        uint numVotes;\r\n        numVotes = customers[_userName].upVotes + customers[_userName].downVotes;\r\n        /* The KYC status of a customer is set to false if number of downvotes > one-third of total number of banks.\r\n        A minimum of 5 votes by banks(upvotes + downvotes) are needed to perform this change of KYC status\r\n        */\r\n        if(numVotes >= 5)\r\n        {\r\n            uint minVotes = numBanks/3;\r\n            if (customers[_userName].downVotes > minVotes)\r\n            {\r\n                customers[_userName].kycStatus = false;\r\n            }\r\n        }\r\n\r\n    }\r\n\r\n\r\n}\r\n",
  "sourcePath": "/home/ramya/truffle/KYC-SC/contracts/KYC.sol",
  "compiler": {
    "name": "solc",
    "version": "0.8.15+commit.e14f2714.Emscripten.clang"
  },
  "schemaVersion": "3.4.7",
  "updatedAt": "2022-07-13T12:18:07.026Z",
  "networkType": "ethereum",
  "devdoc": {
    "kind": "dev",
    "methods": {
      "owner()": {
        "details": "Returns the address of the current owner."
      },
      "renounceOwnership()": {
        "details": "Leaves the contract without owner. It will not be possible to call `onlyOwner` functions anymore. Can only be called by the current owner. NOTE: Renouncing ownership will leave the contract without an owner, thereby removing any functionality that is only available to the owner."
      },
      "transferOwnership(address)": {
        "details": "Transfers ownership of the contract to a new account (`newOwner`). Can only be called by the current owner."
      }
    },
    "version": 1
  },
  "userdoc": {
    "kind": "user",
    "methods": {},
    "version": 1
  }
}